:1000000012C02CC02BC02AC029C028C011C126C0D4
:1000100025C024C023C022C021C020C0C2C01EC031
:100020001DC01CC01BC011241FBECFE5D4E0DEBF25
:10003000CDBF10E0A0E6B0E0ECE6F5E002C0059030
:100040000D92AA37B107D9F710E0AAE7B0E001C0D6
:100050001D92A338B107E1F725D286C2D1CF28E996
:1000600021BB88E082BB8DE387BB8CE188BB8EE03F
:1000700085BB83E389B910BC1BB888E18AB986E8DF
:1000800080BD89E08EBD8FE39FE19BBD8ABD80E18D
:1000900089BF88BF80EA87B926B982E985BF0895FC
:1000A00098E087FF02C0C09A01C0C0980000979AEC
:1000B00000009798915011F0880FF3CF0000949AA8
:1000C00000009498089510927F0010928000109282
:1000D00081001092820007C0885E934020917F00CB
:1000E0002F5F20937F0023E0883E9207A8F707C088
:1000F00084569040209180002F5F209380008436AA
:100100009105B0F706C00A97209181002F5F2093D8
:1001100081008A309105B8F706C0019720918200CE
:100120002F5F209382000097C1F708951F93182F27
:10013000643130F4E62FF0E0EA59FF4F808101C0CE
:100140008FEFAEDF21E030E002C0220F331F1A959F
:10015000E2F7822FA5DF1F910895CF93DF93C0E0D0
:10016000D0E0FE01E158FF4F60818C2FDFDF8FE090
:1001700097E20197F1F700C000002196C430D10545
:1001800081F7DF91CF91089580E180937F0081E135
:100190008093800082E18093810083E180938200DC
:1001A00008951F920F920FB60F9211248F9385B16D
:1001B00080937B008F910F900FBE0F901F9018952A
:1001C000829905C025C080917E00813009F5829911
:1001D000FACF829BFECFF89489E69AE00197F1F777
:1001E00000C000008DE020E030E0220F331F829B32
:1001F0002160E3EEFDE03197F1F700C0000081508F
:10020000A1F7789480917D00815080937D0002C099
:1002100020E030E0C901089593988FE798E3A1E0CA
:1002200081509040A040E1F700C00000939A0895EB
:100230001F920F920FB60F9211242F933F934F935B
:100240005F936F937F938F939F93AF93BF93EF933E
:10025000FF9380916400882321F080916400815095
:1002600016C080917A00843078F480917A00E09111
:100270007A00F0E0E158FF4F608158DF80917A000A
:100280008F5F80937A0002C010927A0083E080939F
:10029000640080917C00815080937C00809160009C
:1002A00090916100009731F0809160009091610021
:1002B000019706C088B390E2892788BB84EF91E05C
:1002C0009093610080936000809162009091630040
:1002D000009731F08091620090916300019702C015
:1002E00080ED97E0909363008093620080917D00A1
:1002F000882329F080917D00815080937D0080913A
:100300006500882331F080916500815080936500FD
:1003100022C0999908C088B38C6088BBC4987CDFE0
:1003200010927E0018C09A990CC088B3846188BB73
:10033000C39872DF81E080937E0080E090E0C3DEAE
:100340000AC09B9908C088B3886188BBC29864DFE3
:1003500082E080937E00FF91EF91BF91AF919F91DA
:100360008F917F916F915F914F913F912F910F905E
:100370000FBE0F901F9018955D9BFECF8CB908950E
:10038000A49A8FEB93E00197F1F700C00000A498C6
:1003900086E292E09A95F1F700C09C990AC08150DC
:1003A000C1F707C092E09A95F1F700C09C9B03C08B
:1003B00081508823B9F782E98A95F1F700C09C99AA
:1003C0000BC086E792E09A95F1F700C09C9906C0B1
:1003D0008150C1F781E0089580E0089581E008959B
:1003E00020E030E041E050E090E0BA01022E02C08F
:1003F000660F771F0A94E2F7FB01E823F923E6175B
:10040000F70751F4A49A62E06A95F1F700C0A49846
:1004100060EA6A95F1F709C0A49A60EA6A95F1F773
:10042000A49862E06A95F1F700C02F5F3F4F283033
:100430003105D9F6089520E030E080E041E050E059
:10044000A49A92E09A95F1F700C0A49890E29A9548
:10045000F1F79C990AC0BA01022E02C0660F771FFD
:100460000A94E2F76095862308C0BA01022E02C002
:10047000660F771F0A94E2F7862B9DE79A95F1F7AE
:1004800000002F5F3F4F28303105D1F608951F93AC
:10049000D2DF182FD0DF8295807F12951F70812BBD
:1004A0001F910895EF92FF920F931F93CF93DF93C5
:1004B000D6DD789408EE13E080917E00882379F4ED
:1004C00080917C008823C1F7889580917B0090E023
:1004D000FADD80917C00815080937C00EDCF80918B
:1004E0007E00813091F480917D00882329F768DEB9
:1004F000EC01009709F39770E6DD7E018F2D877080
:100500003BDF8C2F39DF88DED7CF80917E008230B1
:1005100099F68091620090916300009769F6F894D3
:100520002FDF8130F1F48CEC5BDF84E459DF7894C9
:100530008FE79FE4A2E181509040A040E1F700C026
:100540000000F8941DDF813061F48CEC49DF8EEB04
:1005500047DF9DDF90E0B7DD1093630000936200FA
:0C05600001C012DE7894A8CFF894FFCF01
:10056C00F401D00703FAC0F9A4B0999282F88090F4
:0A057C008883C6A1868EFF86AFAF0C
:00000001FF
