:1000000012C02CC02BC02AC029C028C027C026C0BF
:1000100025C01AC323C022C021C020C0FDC01EC0FD
:100020001DC01CC01BC011241FBECFE5D4E0DEBF25
:10003000CDBF10E0A0E6B0E0E2E7F7E002C0059037
:100040000D92A637B107D9F710E0A6E7B0E001C0DE
:100050001D92A839B107E1F7DBD289C3D1CF88E976
:1000600081BB98E092BB9DE397BB98E398BB9EE071
:1000700095BB93E399B910BC1BB898E19AB996E87F
:1000800090BD90EA97B986B982E985BF089598E056
:1000900087FF02C0C09A01C0C0980000979A000074
:1000A0009798915011F0880FF3CF0000949A0000B8
:1000B0009498089510927F00109280001092810011
:1000C0001092820007C0885E934020917F002F5FCE
:1000D00020937F0023E0883E9207A8F707C084564C
:1000E0009040209180002F5F2093800084369105FE
:1000F000B0F706C00A97209181002F5F20938100FE
:100100008A309105B8F706C00197209182002F5FD1
:10011000209382000097C1F708958091600082309B
:1001200089F08330F9F0813051F588B3886188BB5C
:10013000C598809194009091950090937900809358
:100140007800089588B3886288BBC4988091940031
:100150009091950090937B0080937A0080E090E0EE
:10016000A9DF089588B3806388BBC3988091940009
:100170009091950090937D0080937C00089581E09C
:100180008093600008951F93182F643130F4E62F98
:10019000F0E0EF59FF4F808101C08FEF78DF21E061
:1001A00030E002C0220F331F1A95E2F7822F6FDF73
:1001B0001F9108951F93CF93DF93C0918300D09137
:1001C000840080919400909195008C1B9D0B97FD6D
:1001D00012C010918500E12FF0E0E158FF4F6081DF
:1001E000812FD1DF1F5F1370109385002596D09368
:1001F0008400C0938300DF91CF911F91089580E127
:1002000080937F0081E18093800082E18093810070
:1002100083E18093820008951F920F920FB60F9290
:1002200011248F9385B180937E008F910F900FBE24
:100230000F901F90189593982091940030919500FD
:10024000280F391F30937700209376000895CF93BD
:10025000DF93C0918600D0918700809194009091A7
:100260009500805091408C1B9D0B2FEF80309207A2
:1002700028F1999909C080916000815080936000B5
:10028000882381F483E00CC09A9B18C09B9911C00D
:10029000809160008F5F80936000843018F081E06F
:1002A0008093600082E390E0C6DF37DFC853DF4F02
:1002B00001C0E296D0938700C0938600DF91CF9172
:1002C0000895939911C08091940090919500805069
:1002D00091402091760030917700821B930B2FEF95
:1002E0008030920708F0939A089582990AC02FC02F
:1002F000C2D173D15FDFE5DFAADF80916000823079
:1003000031F58299F5CF829BFECFF89489E69AE089
:100310000197F1F700C000008DE020E030E0220FEF
:10032000331F829B2160E3EEFDE03197F1F700C0BF
:1003300000008150A1F778948091940090919500ED
:1003400086509F4F90937B0080937A0002C020E0FC
:1003500030E0C90108955D9BFECF8CB90895A49A41
:100360008FEB93E00197F1F700C00000A49886E2BC
:1003700092E09A95F1F700C09C990AC08150C1F7AC
:1003800007C092E09A95F1F700C09C9B03C0815092
:100390008823B9F782E98A95F1F700C09C990BC0D0
:1003A00086E792E09A95F1F700C09C9906C08150CB
:1003B000C1F781E0089580E0089581E0089520E08C
:1003C00030E041E050E090E0BA01022E02C0660F3A
:1003D000771F0A94E2F7FB01E823F923E617F707F2
:1003E00051F4A49A62E06A95F1F700C0A49860EA1B
:1003F0006A95F1F709C0A49A60EA6A95F1F7A498A2
:1004000062E06A95F1F700C02F5F3F4F2830310559
:10041000D9F6089520E030E080E041E050E0A49A71
:1004200092E09A95F1F700C0A49890E29A95F1F7BE
:100430009C990AC0BA01022E02C0660F771F0A9467
:10044000E2F76095862308C0BA01022E02C0660F4B
:10045000771F0A94E2F7862B9DE79A95F1F7000043
:100460002F5F3F4F28303105D1F608951F93D2DF1B
:10047000182FD0DF8295807F12951F70812B1F91DE
:100480000895EF92FF921F93CF93DF9380916000C6
:10049000823039F1833009F450C0813009F094C0C2
:1004A0008091940090919500805091402091780027
:1004B00030917900821B930B2FEF8030920708F464
:1004C00086C0889580917E0090E0F4DD8091780070
:1004D000909179008C509E4F909379008093780092
:1004E00076C0809194009091950080509140209129
:1004F0007A0030917B00821B930B3FEF8030930793
:1005000008F465C0F2DEEC01009709F460C0977052
:10051000D1DD7E018F2D87701EDF8C2F1CDF82E3E3
:1005200090E089DE80917A0090917B0086509F4F09
:1005300090937B0080937A004AC0809194009091C0
:1005400095008050914020917C0030917D00821B6D
:10055000930B2FEF80309207D0F180918A0088238F
:10056000A9F4FDDE182F8130F1F48CEC28DF84E44F
:1005700026DF20917C0030917D0022513D4F309349
:100580007D0020937C0010938A0021C08130F9F413
:10059000E6DE813041F48CEC12DF8EEB10DF66DF9B
:1005A00090E088DD04C02BDE82E390E044DE8091A1
:1005B0007C0090917D008053984F90937D008093B4
:1005C0007C0010928A0003C081E080936000DF917C
:1005D000CF911F91FF90EF90089520918800309166
:1005E0008900809194009091950080509140821BE9
:1005F000930B4FEF8030940750F02C503E4F3093C8
:1006000089002093880088B394E0892788BB0895E7
:100610000F931F9324DD29D080E090E08FD0082F26
:10062000809360007ADD789426D0D7DF10DE1091B9
:100630006000101721F080E090E0612F87D021DF6B
:10064000B9DD3FDE012FF0CF1F920F920FB60F9250
:1006500011248F9380918B008F5F80938B008F91FB
:100660000F900FBE0F901F90189584E083BF89B73D
:10067000816089BF0895EF92FF920F931F93CF93EC
:10068000DF9380918B0062B708B600FCFACF20910F
:100690008B002817B1F7922F80E070E0682B792B40
:1006A000709397006093960040919400509195004C
:1006B00020918E0030918F0080918C0090918D0060
:1006C000E0909000F09091000091920010919300C2
:1006D00011C04F5F5F4F215E3F4F5F972196E3E070
:1006E000C83EDE0768F00894E11CF11C011D111DD5
:1006F00088519C4FDB01A21BB30BEA01C81BD90B2D
:10070000AF31B10530F7509395004093940030938A
:100710008F0020938E0090938D0080938C00E09248
:100720009000F09291000093920010939300DF915B
:10073000CF911F910F91FF90EF900895E199FECF17
:100740009FBB8EBBE09A99278DB30895262FE19920
:10075000FECF9FBB8EBBE09A01970DB2021631F01F
:100760002DBB0FB6F894E29AE19A0FBE0895F89463
:02077000FFCFB9
:1007720001C0F9A4B0999282F880908883C6A186BC
:060782008EFF86AFAF0000
:00000001FF
