:1000000012C02CC02BC02AC029C028C04EC126C097
:1000100025C024C023C022C021C020C0E5C01EC00E
:100020001DC01CC01BC011241FBECFE5D4E0DEBF25
:10003000CDBF10E0A0E6B0E0EEE1F6E002C0059032
:100040000D92AA37B107D9F710E0AAE7B0E001C0D6
:100050001D92A438B107E1F748D2DFC2D1CF28E919
:1000600021BB88E082BB8DE387BB88E388BB8EE041
:1000700085BB83E389B910BC1BB888E18AB986E8DF
:1000800080BD89E08EBD8FE39FE19BBD8ABD80E18D
:1000900089BF88BF80EA87B926B982E985BF0895FC
:1000A00098E087FF02C0C09A01C0C0980000979AEC
:1000B00000009798915011F0880FF3CF0000949AA8
:1000C0000000949808951092800010928100109280
:1000D00082001092830007C0885E934020918000C8
:1000E0002F5F2093800023E0883E9207A8F707C087
:1000F00084569040209181002F5F209381008436A8
:100100009105B0F706C00A97209182002F5F2093D7
:1001100082008A309105B8F706C0019720918300CC
:100120002F5F209383000097C1F7089580916000AE
:10013000823049F0833079F0813091F488B388615E
:1001400088BBC59810C088B3886288BBC49880E01B
:1001500090E0B9DF08C088B3806388BBC39803C050
:1001600081E0809360006091600080E090E044D284
:1001700008951F93182F643130F4E62FF0E0EA5908
:10018000FF4F808101C08FEF8BDF21E030E002C0A4
:10019000220F331F1A95E2F7822F82DF1F910895F5
:1001A000CF93DF93C0E0D0E0FE01E058FF4F6081C5
:1001B0008C2FDFDF8FE097E20197F1F700C000009E
:1001C0002196C430D10581F7DF91CF91089580E168
:1001D0008093800081E18093810082E1809382009E
:1001E00083E18093830008951F920F920FB60F92C0
:1001F00011248F9385B180937B008F910F900FBE58
:100200000F901F901895829905C023C080916000BF
:100210008230F9F48299FACF829BFECFF89489E676
:100220009AE00197F1F700C000008DE020E030E097
:10023000220F331F829B2160E3EEFDE03197F1F73F
:1002400000C000008150A1F778948FEF80937E006A
:1002500002C020E030E0C9010895939880937C00AB
:100260000895999910C0809160008150809360003A
:1002700080916000882319F483E08093600082E31A
:10028000ECDF54DF08959B990FC0809160008F5F71
:100290008093600080916000843018F081E080934A
:1002A000600082E3DADF42DF08951F920F920FB6FB
:1002B0000F9211242F933F934F935F936F937F93EC
:1002C0008F939F93AF93BF93EF93FF9380916500BC
:1002D000882321F080916500815016C080917A00BA
:1002E000843078F480917A00E0917A00F0E0E05870
:1002F000FF4F60813EDF80917A008F5F80937A00AC
:1003000002C010927A0083E08093650080916100C2
:1003100090916200009749F0809161009091620095
:100320000197909362008093610080917D008150DD
:1003300080937D008091630090916400009731F07C
:100340008091630090916400019706C088B394E0A7
:10035000892788BB84EF91E09093640080936300C9
:1003600080917C00882331F080917C0081508093C3
:100370007C0001C0939A80917E00882329F08091AF
:100380007E00815080937E0080917F008150809319
:100390007F0080917F00882309F463DFFF91EF9154
:1003A000BF91AF919F918F917F916F915F914F918D
:1003B0003F912F910F900FBE0F901F9018955D9B4E
:1003C000FECF8CB90895A49A8FEB93E00197F1F7D3
:1003D00000C00000A49886E292E09A95F1F700C070
:1003E0009C990AC08150C1F707C092E09A95F1F735
:1003F00000C09C9B03C081508823B9F782E98A958D
:10040000F1F700C09C990BC086E792E09A95F1F74E
:1004100000C09C9906C08150C1F781E0089580E03A
:10042000089581E0089520E030E041E050E090E060
:10043000BA01022E02C0660F771F0A94E2F7FB0191
:10044000E823F923E617F70751F4A49A62E06A95C6
:10045000F1F700C0A49860EA6A95F1F709C0A49A80
:1004600060EA6A95F1F7A49862E06A95F1F700C036
:100470002F5F3F4F28303105D9F6089520E030E056
:1004800080E041E050E0A49A92E09A95F1F700C034
:10049000A49890E29A95F1F79C990AC0BA01022EAD
:1004A00002C0660F771F0A94E2F76095862308C0A2
:1004B000BA01022E02C0660F771F0A94E2F7862B5C
:1004C0009DE79A95F1F700002F5F3F4F28303105E7
:1004D000D1F608951F93D2DF182FD0DF8295807F49
:1004E00012951F70812B1F910895AF92BF92CF92EA
:1004F000DF92EF92FF920F931F93CF93DF93AFDDC5
:1005000080E090E071D08093600010DE7894DD246C
:1005100000ED17E08EEEE82E82E0F82ECC24C39496
:10052000809160008230A1F0833029F1813009F0A0
:1005300058C080917D00882399F7889580917B0031
:1005400090E0C1DD80917D00815080937D00E8CFF7
:1005500080917E00882321F756DEEC01009701F39D
:100560009770B1DD5E018B2D877029DF8C2F27DF1F
:1005700082E373DED5CF8091610090916200009795
:1005800079F6DD20C1F4F8941EDF813061F48CEC43
:100590004ADF84E448DF7894F0926200E0926100E0
:1005A000DD24D3941CC013DE82E357DE1093620077
:1005B0000093610014C0F89406DF813041F48CECA4
:1005C00032DF8EEB30DF86DF90E07DDD03C0FFDDC4
:1005D00082E343DE1093620000936100DD2478948F
:1005E0009FCFC09260009CCFE199FECF9FBB8EBB96
:1005F000E09A99278DB30895262FE199FECF9FBBEE
:100600008EBBE09A01970DB2021631F02DBB0FB6EA
:0E061000F894E29AE19A0FBE0895F894FFCF95
:10061E0001D007F40103C0F9A4B0999282F880903A
:0A062E008883C6A1868EFF86AFAF59
:00000001FF
