S01200004156525F63616C6C65722E7372656357
S1130000D9C0C7C1E6C1F1C0F0C0EFC04CC1EDC05A
S1130010ECC0EBC0EAC0EAC0E8C0E7C0E6C0E5C097
S1130020ECC1E3C0E2C065C37BC382C389C38BC395
S11300308DC38FC396C39DC3A4C3B1C3B8C3BAC38E
S1130040BCC3BEC3BFC310C4E4C3E5C3E6C3E7C3B4
S1130050E8C3E9C3EAC3EBC3F3C3F4C3F7C3F8C308
S1130060F9C3FFC3FCC39EC4A1C4BAC4C8C4CEC4EC
S1130070D1C4EAC4F8C4FEC401C51AC528C52EC536
S113008037C53FC571C543C54FC55BC53E20000D8F
S11300900A52494E470D0A0D0A2B434C49503A2047
S11300A022000D0A2B4343414C523A20310D0A0DD4
S11300B00A4F4B0D0A000D0A2B435245473A203094
S11300C02C310D0A0D0A4F4B0D0A000D0A2B43501B
S11300D041533A20300D0A0D0A4F4B0D0A000D0A08
S11300E04F4B0D0A00415445300D0D0A4F4B0D0A7C
S11300F00041540D0D0A4F4B0D0A000D0A2B434FBE
S11301004C503A20223338300041542B434F4C504A
S11301103D310D0041542B47534D425553593D3009
S11301200D0041542B47534D425553593D310D0059
S11301304154480D004543546220323230421A0083
S113014048455420323230421A00220D0041542BCB
S1130150434D47533D22003B0D004154440041545C
S11301602B4343414C523F0D0041542B43524547CE
S11301703F0D0041542B435041530D0041542B4338
S11301804C49503D310D0041542B434D47463D31C0
S11301900D0041542B434C43433D300D0041542B3F
S11301A04950523D393630300D00415445300D0030
S11301B041540D0011241FBECFE5D4E0DEBFCDBFF6
S11301C010E0A0E6B0E0E8EBFDE002C005900D927F
S11301D0A436B107D9F720E0A4E6B0E001C01D922F
S11301E0A43BB207E1F7F3D4E5C50ACF1F920F92FF
S11301F00FB60F9211248F939F93EF93FF938091E7
S11302006400813069F48CB18091A30081508093A3
S1130210A3008091A30081113DC01092640035C0F9
S1130220809166008034B1F4E091A10081E08E0FEA
S11302308093A100F0E08CB1EA55FF4F8083809158
S1130240A1008D3039F5E091A100F0E0EA55FF4FAF
S113025010821BC08CB1E091A400F091A500E49140
S11302608E1315C08091A4009091A50001969093DF
S1130270A5008093A400E091A400F091A500E4916E
S1130280E11108C081E080936000579803C082E0C8
S113029080936000FF91EF919F918F910F900FBE1B
S11302A00F901F9018951F920F920FB60F92112462
S11302B08F939F9380916F0090917000892BB9F078
S11302C080916F00909170000197909370008093DB
S11302D06F0080916F0090917000892B41F48091A0
S11302E06000813021F082E0809360005798809113
S11302F0710090917200892B49F080917100909166
S113030072000197909372008093710080916D0048
S113031090916E00892B49F080916D0090916E0050
S1130320019790936E0080936D0080916900909185
S11303306A00892B49F08091690090916A000197C5
S113034090936A008093690080916700909168009F
S1130350892B49F0809167009091680001979093F0
S113036068008093670080916B0090916C00892BEA
S113037049F080916B0090916C00019790936C0010
S113038080936B009F918F910F900FBE0F901F90E1
S113039018951F920F920FB60F9211248F939F936B
S11303A080916600813051F480E28093660088EB8E
S11303B09BE090936E0080936D0003C083E0809374
S11303C066001BBE9F918F910F900FBE0F901F90E0
S11303D018951F920F920FB60F9211248F9380914C
S11303E066008068809366008BB78F778BBF8F9190
S11303F00F900FBE0F901F9018951F920F920FB67B
S11304000F9211248F939F93809165008160809354
S11304106500439898B181E0892788B99F918F91AD
S11304200F900FBE0F901F901895CF93DF932091DC
S1130430710030917200232B09F04CC0209173009D
S1130440309174002150310930937400209373006B
S1130450232B09F03FC0EC0186B38093A200809166
S1130460A20085FD33C080916600811111C080E136
S113047080936600F89460E18AE290E08AD488EB85
S11304809BE090936E0080936D007894C39818C09D
S1130490109266001ABE80E88BBFF89460E08AE28E
S11304A090E077D410926A0010926900109268006C
S11304B01092670010926C0010926B007894C39AAB
S11304C088EE93E09093720080937100D09374004F
S11304D0C0937300DF91CF910895109260009093C0
S11304E0A5008093A400F8947093700060936F004B
S11304F078948CB1579A08951F93CF93DF93EC01AE
S1130500162F80916000823029F46FEF7FEF8FE81F
S113051090E0E3DF80916000813031F480E48093E7
S11305206600579A1093760080916B0090916C004E
S1130530892B51F4F894D0936C00C0936B00789499
S113054098B380E1892788BBDF91CF911F910895EB
S11305504EE050E06CE170E083E990E0F3D34EE0CC
S113056050E06EE070E085E890E0ECD34EE050E0BF
S113057060E070E087E790E0E5C35D9BFECF8CB957
S11305800895CF93DF93EC01CE01FE012491222341
S113059029F02196FC018491F0DFF6CFDF91CF9111
S11305A00895CF939C018091A1008D3029F510927C
S11305B0A1009091A1009D3091F09091A100E09153
S11305C0A100F0E0EA55FF4F8081F901E90FF11D28
S11305D080839091A1009F5F9093A100EACFC62FE2
S11305E080E391E0CEDF1092A1001092660082E0D9
S11305F080936000C0937600CF910895CF9382E0FA
S113060080936000C1E0809176008730A1F1A895C5
S11306108330B1F040F4813079F0823049F563E001
S113062083E990E01AC0853099F070F0863001F5C6
S113063067E087E790E011C062E088EE93E00BC0CA
S113064064E084EF91E007C065E085E890E005C0D0
S113065066E08AEF90E050DFD6CFA3DF2FEF84E38C
S11306609CE0215080409040E1F700C00000CBCFD7
S1130670C0937600C8CFCF910895CF93DF93EC0158
S11306808991882311F079DFFBCFDF91CF91089511
S1130690CF93DF93EC018AE591E073DFCE01EDDFC8
S11306A087E591E06EDF6FEF7FEF8BEF90E0DF91F6
S11306B0CF9113CF8091650080FF0EC080917500AB
S11306C0813051F48AE080936100F8948091650050
S11306D08E7F809365007894E09161008E2F90E086
S11306E0FC013197E031F10508F074C0ED5EFF4F75
S11306F0099494982FE78FEA92E02150804090402B
S1130700E1F700C00000949AF89488E893E190938C
S1130710700080936F0082E0809361007894089564
S113072080EB91E02EDF68EB7BE081EF90E051C03D
S11307308AEA91E026DF68EB7BE085EE90E049C031
S11307408DE991E041C087E891E03EC082E291E00A
S11307503BC083E791E015DF68EB7BE08BEC90E036
S113076038C089E691E00DDF68EB7BE086EB90E032
S113077030C08EE591E005DF68EB7BE082EA90E033
S113078028C08DE491E0FDDE83E990E076DF8AE421
S113079091E0F7DE68EB7BE08CE890E01AC04099CA
S11307A003C080E491E010C085E391E00DC082E9CC
S11307B091E00AC08CE791E007C084E191E004C0B5
S11307C086E009C089E091E0DCDE68EB7BE08EED39
S11307D090E083CE81E0809361000895A895809194
S11307E06000813009F041C080916F0090917000E9
S11307F0892BD9F585E080936200E09161008E2F0A
S113080090E0FC013197E031F10558F5ED5DFF4FC3
S1130810099483E027C084E025C085E023C086E0F6
S113082021C080E11FC088E01DC089E01BC081E0B9
S11308308093750080917600882389F08CE012C043
S11308408BE010C088B1886188B909C08DE00AC006
S11308508EE008C082E0809375008FE003C087E0DB
S113086001C081E08093610025DF809160008230C7
S113087011F580916F0090917000892BE1F48091C3
S113088061008A50823038F488B1886188B987E081
S1130890809361000FC08091620081508093620058
S11308A0811108C01092750081E08093610085E099
S11308B080936200FFCE0895C49881E0809376000F
S11308C080917500823011F089DFFACF97DEF894B9
S11308D010926C0010926B00C4984EE050E06CE1F2
S11308E070E083E990E046D24EE050E06EE070E0C4
S11308F085E890E03FD24EE050E060E070E087E7AA
S113090090E038D27894C49A80B38093A200809106
S1130910A20085FD02C0A895FACF0895F89484EF4B
S113092091E090936C0080936B00789498B388E086
S1130930892788BB08958091690090916A00892B6A
S113094009F4C09A8091670090916800892B11F492
S1130950C19AC29A0895CF93DF938091600088234F
S1130960E1F3C1E0DCE1A895E6DF80916B009091B2
S11309706C00892B09F4D2DF80E197E256DD809187
S11309806600811104C0CF3009F0B2C0BAC08C2F08
S113099090E0FC013197E331F10508F0E5C0ED5C2E
S11309A0FF4F099483E990E073DEBCC0809160003E
S11309B0813031F480936400D093A300579AC1E14D
S11309C080916000823009F0C9C02FEF80E792E087
S11309D0215080409040E1F700C00000C3E0C3CF45
S11309E080916000882309F4BECF80E391E0C9DDE3
S11309F068EB7BE08EED90E070DDC4E0B4CF8091D5
S1130A006000882309F4AFCFC5E0ADCF85E890E05E
S1130A103FDE95C080916000813031F480936400A2
S1130A20D093A300579AC2E180916000823009F00C
S1130A3095C02FEF80E792E0215080409040E1F78D
S1130A4000C00000C7E08FCF80916000882309F4C4
S1130A508ACF80E391E095DD68EB7BE08EED90E05A
S1130A603CDDC8E080CF80916000882309F47BCF0F
S1130A70C9E079CF87E790E00BDE6EC0809160001B
S1130A80813031F480936400D093A300579AC3E17A
S1130A9080916000823009F061C02FEF80E792E01E
S1130AA0215080409040E1F700C00000CBE05BCFD4
S1130AB080916000882309F456CF80E391E061DDE2
S1130AC068EB7BE08EED90E008DDCCE04CCF8091CC
S1130AD06000882309F447CFCDE045CFF89489E03E
S1130AE08093660069E08AE290E053D178943CC038
S1130AF080E391E046DD68EB7BE08EED90E0EDDC99
S1130B0031C080916000882369F1C39A2DC080911F
S1130B10A300811128CF109264006FEF7FEF8EED58
S1130B2090E0DBDCC2E01FCF8091A30081111BCFDA
S1130B30109264006FEF7FEF8EED90E0CEDCC6E0A4
S1130B4012CF8091A30081110ECF109264006FEF39
S1130B507FEF8EED90E0C1DCCAE005CFC03109F033
S1130B6002CF02C0CFE0FFCEDF91CF9108958C9ADF
S1130B7087B38F6187BB82B38C6282BB88B3846284
S1130B8088BB88B3886188BB83E389B910BC1BB870
S1130B9088E18AB986E880BD89E08EBD8FE39FE154
S1130BA09BBD8ABD80E189BF88BF85B78A6085BF48
S1130BB085B78A6085BF939A8091A20087FD03C0A0
S1130BC088B18B6402C088B18A6488B90895CFDF84
S1130BD08AE290E0C7D08093660078949FE088E131
S1130BE00FB6F894A89581BD0FBE91BD80916600A3
S1130BF0811107C080B38093A2008091A20085FF79
S1130C005BDE10927600A895A3DC80E88ABF8BBFD8
S1130C1080916600882321F080EC8ABF8BBFC39843
S1130C20D3E008EB1BE085E0F82EC0ECEE24E3945F
S1130C3088E893E1FADBD2DD7EDE809166008032C3
S1130C4071F480916D0090916E00892B41F4F894B9
S1130C50D093660063E08AE290E09BD07894809120
S1130C6066008330A9F488B3887F88BBF894109316
S1130C706A00009369001093680000936700F09283
S1130C80660065E08AE290E084D07894CABFCBBF66
S1130C9080916600853059F480917500813039F473
S1130CA05ADE80916600882311F0CABFCBBF8091C1
S1130CB06600882359F080916600813039F0809174
S1130CC06B0090916C00892B09F428DE80916600FA
S1130CD0803189F480916D0090916E00892B59F4D4
S1130CE0E0926600CABFCBBFF89410926C001092D9
S1130CF06B007894C39880916600803269F4809187
S1130D006D0090916E00883B9B4031F4F89460E252
S1130D108AE290E03ED078948091660087FF88CF85
S1130D2080917500813009F083CF15DE80916600D3
S1130D308F77809366008AB780688ABF8BB7806894
S1130D408BBF76CFDC01CB01FC01E199FECF06C05D
S1130D50FFBBEEBBE09A31960DB20D92415050406C
S1130D60B8F70895E199FECF9FBB8EBBE09A99270F
S1130D708DB30895DC01A40FB51F4150504040F0DD
S1130D80CB01840F951F2E9105D041505040D8F7C8
S1130D900895262FE199FECF9FBB8EBBE09A019761
S1130DA00DB2021631F02DBB0FB6F894E29AE19A17
S10B0DB00FBE0895F894FFCF73
S1070DB8020106002A
S9030000FC
