:10000000B7C099C1B8C1CFC0CEC0CDC01AC1CBC096
:10001000CAC0C9C0C8C0C8C0C6C0C5C0C4C0C3C0AB
:10002000CAC1C1C0C0C034C34AC34FC354C356C3FE
:1000300058C35AC35FC364C369C374C3B6C39AC306
:100040009BC39EC39FC3ADC39FC3A0C3A1C3A4C38F
:10005000A5C392C498C4A5C4AAC4AEC4B3C4C1C441
:10006000C6C4CAC4D8C4E6C4EAC4F3C4FBC4415479
:100070000D00415445300D0041542B4950523D393B
:100080003630300D0041542B434D47463D310D0075
:1000900041542B434C49503D310D0041542B4350AA
:1000A00041530D0041542B435245473F0D004154ED
:1000B0002B4343414C523F0D00415444003B0D0043
:1000C00041542B434D47533D2200220048455420C4
:1000D000323230421A004154480D0041542B4753EC
:1000E0004D425553593D310D0041542B47534D421C
:1000F0005553593D300D0041540D0D0A4F4B0D0A1B
:1001000000415445300D0D0A4F4B0D0A000D0A4FAA
:100110004B0D0A000D0A2B435041533A20300D0A73
:100120000D0A4F4B0D0A000D0A2B435245473A204A
:10013000302C310D0A0D0A4F4B0D0A000D0A2B43CE
:1001400043414C523A20310D0A0D0A4F4B0D0A0023
:100150000D0A52494E470D0A0D0A2B434C49503A9D
:100160002022003E20000D0A425553590D0A00007E
:1001700011241FBECFE5D4E0DEBFCDBF10E0A0E666
:10018000B0E0EEE9FCE002C005900D92A436B107A4
:10019000D9F710E0A4E6B0E001C01D92A13BB10781
:1001A000E1F7AAD47AC52CCF1F920F920FB60F9207
:1001B00011248F939F93EF93FF938091710080346C
:1001C000B9F4E0916400F0E08CB1ED55FF4F80830D
:1001D000809164008F5F80936400809164008D3013
:1001E00039F5E0916400F0E0ED55FF4F10821BC03F
:1001F0008CB1E091A100F091A200E4918E17A9F4D6
:100200008091A1009091A20001969093A20080930A
:10021000A100E091A100F091A200E491EE2341F44D
:1002200081E080936000579803C082E08093600073
:10023000FF91EF919F918F910F900FBE0F901F90A4
:1002400018951F920F920FB60F9211242F938F9330
:100250009F9380916700909168002FEF8F3F9207E6
:10026000B9F08091670090916800009741F4809107
:100270006000813021F082E0809360005798809187
:1002800067009091680001979093680080936700E1
:100290008091650090916600009749F0809165001B
:1002A000909166000197909366008093650080911D
:1002B000690090916A00009749F0809169009091DF
:1002C0006A00019790936A008093690080916D00A5
:1002D00090916E00009749F080916D0090916E00B2
:1002E000019790936E0080936D0080916F009091C4
:1002F0007000009749F080916F0090917000019715
:100300009093700080936F0080916B0090916C00CF
:10031000009749F080916B0090916C000197909349
:100320006C0080936B009F918F912F910F900FBE67
:100330000F901F9018951F920F920FB60F921124D5
:100340008F939F9380917100813051F480E280936C
:10035000710080E197E290936A008093690003C086
:1003600083E0809371001BBE9F918F910F900FBE11
:100370000F901F9018951F920F920FB60F92112495
:100380008F939F9380917100813051F480E280932C
:10039000710080E197E290936A008093690003C046
:1003A00083E0809371001BBE9F918F910F900FBED1
:1003B0000F901F9018951F920F920FB60F92112455
:1003C0008F938091720081608093720043988F9127
:1003D0000F900FBE0F901F901895CF93DF93EC01F5
:1003E0008091650090916600009709F045C080916A
:1003F0009F009091A00001979093A00080939F0090
:100400000097D1F586B380939E0085FD31C0809121
:100410007100882389F480E180937100F89480E072
:1004200090E060E129D480E197E290936A008093A4
:1004300069007894C39816C0109271001BBEF8949E
:1004400010926E0010926D001092700010926F006A
:1004500010926C0010926B0080E090E060E00CD491
:100460007894C39A88EE93E0909366008093650039
:10047000D093A000C0939F00DF91CF910895109278
:1004800060009093A2008093A100F894709368009C
:100490006093670078948CB1579A08951F93CF9317
:1004A000DF93EC01162F80916000823029F480E503
:1004B00091E06FEF7FEFE3DF80916000813031F4F6
:1004C00080E480937100579A1093610080916B00D3
:1004D00090916C00009751F4F894D0936C00C09305
:1004E0006B00789488B390E1892788BBDF91CF9126
:1004F0001F91089583E790E061E070E04EE050E0E6
:1005000094D381E890E06FE070E04EE050E08DD34E
:100510008FE890E06DE170E04EE050E086D3089502
:100520005D9BFECF8CB90895EF92FF92CF93DF933E
:10053000E82EE7017E01F92EE70101C0F1DF899184
:100540008823E1F7DF91CF91FF90EF900895CF934B
:10055000DF93EC0102C0E4DF2196FE018491882341
:10056000D1F7DF91CF910895DF93CF930F92CDB75D
:10057000DEB7209164002D3031F51092640011C077
:1005800030916400E0916400F0E0ED55FF4F208170
:10059000FC01E30FF11D2083209164002F5F209365
:1005A0006400209164002D3059F786ED90E0698356
:1005B000CEDF109264001092710082E080936000A0
:1005C0006981609361000F90CF91DF9108951F932F
:1005D00082E08093600011E036C08330B1F0843057
:1005E00028F4813051F0823061F50BC08530F9F08C
:1005F000853078F0863029F51FC088EE93E062E000
:1006000019C083E790E063E007C084EF91E064E005
:1006100011C081E890E065E0A7DF8FEF93EDA0E3E4
:1006200081509040A040E1F700C000000CC08AEF6C
:1006300090E066E033DF07C08FE890E067E094DF8A
:1006400002C01093610080916100873031F61F91E4
:1006500008958091720080FF0EC080919D008130CE
:1006600051F48AE080936200F894809172008E7F4A
:100670008093720078948091620090E001978B30B3
:10068000910508F058C08D5E9F4F8F939F930895FA
:1006900094988FE79FEAA2E081509040A040E1F754
:1006A00000C00000949AF89488E293E29093680066
:1006B0008093670082E080936200789408958EE6CC
:1006C00090E045DF87EF90E032C082E790E03FDFC7
:1006D00081E091E02CC088E790E026C08BED90E0AF
:1006E00023C085E890E020C08BE990E030DF84E112
:1006F00091E01DC084EA90E02ADF87E291E017C014
:100700008EEA90E024DF8CE391E011C080EC90E071
:100710001EDF83E790E008DF8AEC90E018DF83E6D5
:1007200091E005C08CEC90E012DF8DE091E068EB89
:100730007BE0A5DE089581E080936200089520911A
:100740006000213099F580916700909168003FEF3B
:100750008F3F930759F585E0809363008091620095
:1007600090E001978B309105F0F4825E9F4F8F935C
:100770009F93089583E001C084E08093620015C0D8
:1007800085E0FBCF86E0F9CF88E0F7CF89E0F5CFB1
:1007900081E080939D0005C08BE0EFCF88B1886138
:1007A00088B987E0EACF2093620053DF8091600030
:1007B000823021F580916700909168002FEF8F3F84
:1007C0009207E1F4809162008A50823038F488B157
:1007D000886188B987E0809362000FC080916300D0
:1007E000815080936300882341F410929D0081E042
:1007F0008093620085E0809363002BDF0895C498A6
:1008000001C09DDF80919D008130D9F78FEF93ED7E
:10081000A0E381509040A040E1F700C0000089EEC5
:1008200090E095DE8FEF93EDA0E381509040A040E3
:10083000E1F700C0000080E990E089DE8FEF93EDE2
:10084000A0E381509040A040E1F700C00000BFDE6F
:100850008FEF93EDA0E381509040A040E1F700C0FE
:1008600000008BED90E073DE8FEF93EDA0E38150FD
:100870009040A040E1F700C00000F89410926C0096
:1008800010926B00C49883E790E061E070E04EE066
:1008900050E0E3D181E890E06FE070E04EE050E09E
:1008A000DCD18FE890E06DE170E04EE050E0D5D112
:1008B0007894C49A80B380939E0090E08072907088
:1008C0000097F1F30895CF93DF93EC0189EB90E06B
:1008D0003EDECE0129DE8DEB90E039DE8DE091E049
:1008E00060E27EE4CCDDDF91CF910895F89484EF4F
:1008F00091E090936C0080936B00789488B398E0BB
:10090000892788BB089580916D0090916E000097B3
:1009100009F4C09A80916F0090917000009711F4D3
:10092000C19AC29A08951F93809160008823E1F3D1
:1009300011E0E9DF80916B0090916C00009709F461
:10094000D5DF80E197E249DD80917100882321F4B1
:100950001F3009F07EC086C0812F90E002978E3054
:10096000910528F4875D9F4F8F939F93089583E7A8
:1009700090E0A9DF12E0DDCF80916000882309F4C8
:100980003FC013E03DC080916000882391F286ED66
:1009900090E0DDDD8DE091E068EB7BE070DD14E060
:1009A000C8CF80916000882309F077C0C2CF81E86A
:1009B00090E089DF16E0BDCF80916000882301F1CF
:1009C00017E01EC080916000882309F4B2CF86ED45
:1009D00090E0BDDD8DE091E068EB7BE050DD18E05C
:1009E000A8CF80916000882309F059C0A2CF8FE87A
:1009F00090E069DF1AE09DCF8091600081111BE0DB
:100A000080916000813009F094CF86E691E060E249
:100A10007EE435DD8ECF80916000882309F489CF94
:100A200086ED90E094DD8DE091E068EB7BE027DDE2
:100A30001CE07FCF80916000882399F57ACFF894ED
:100A400089E08093710080E090E069E015D17894AE
:100A50002CC086ED90E07BDD8DE091E068EB7BE0E3
:100A60000EDD21C0809160008823E9F010927100B2
:100A70001BBEF89410926E0010926D0010927000E0
:100A800010926F0010926C0010926B0080E090E06A
:100A900060E0F2D07894C39A08C015E04ACF19E01C
:100AA00048CF1DE046CF1FE044CF1F9108958C9A98
:100AB00087B38F6187BB82B38C6282BB88B3846249
:100AC00088BB88B3886188BB83E389B910BC1BB835
:100AD00088E18AB986E880BD89E08EBD8FE39FE119
:100AE0009BBD8ABD80E189BF88BF85B78A6085BF0D
:100AF00088B18B6488B90895EF92FF920F931F938A
:100B0000CF93DF93D4DF80E090E09FD0809371009B
:100B1000789480917100882329F480B380939E009B
:100B200085FF6DDEE7DC80917100882321F080EC89
:100B30008ABF8BBFC39893E0E92EC0E1D7E285E07E
:100B4000F82E10EC01E088E893E147DCF8DDDBDE0D
:100B500080917100803271F48091690090916A00F7
:100B6000009741F4F894E092710080E090E063E037
:100B700083D07894809171008330A9F488B3887F02
:100B800088BBF894D0936E00C0936D00D093700032
:100B9000C0936F00F092710080E090E065E06CD04F
:100BA00078941ABF1BBF80917100853029F4809121
:100BB0009D00813009F4B7DE80917100882359F0DF
:100BC00080917100813039F080916B0090916C00C0
:100BD000009709F48BDE80917100803189F4809157
:100BE000690090916A00009759F4009371001ABF50
:100BF0001BBFF89410926C0010926B007894C3980D
:100C000080917100803209F09ECF809169009091AF
:100C10006A0027E28031920709F095CFF89480E0CE
:100C200090E060E229D078948ECFDC01CB01FC010A
:100C3000E199FECF06C0FFBBEEBBE09A31960DB244
:100C40000D9241505040B8F70895E199FECF9FBBF7
:100C50008EBBE09A99278DB30895DC01A40FB51FD0
:100C60004150504040F0CB01840F951F2E9105D08C
:100C700041505040D8F70895262FE199FECF9FBBF1
:100C80008EBBE09A01970DB2021631F02DBB0FB664
:0E0C9000F894E29AE19A0FBE0895F894FFCF0F
:040C9E000201010648
:00000001FF
