:10000000BDC09FC1BEC1D5C0D4C0D3C020C1D1C066
:10001000D0C0CFC0CEC0CEC0CCC0CBC0CAC0C9C07B
:10002000D0C1C7C0C6C03EC354C359C35EC360C3BA
:1000300062C364C369C36EC373C37EC3C1C3A5C3B4
:10004000A6C3A9C3AAC3B8C3AAC3ABC3ACC3AFC337
:10005000B0C3B8C4BEC4CBC4D0C4D4C4D9C4E7C42C
:10006000ECC4F0C4FEC40CC510C519C521C541546B
:100070000D00415445300D0041542B4950523D393B
:100080003630300D0041542B434C43433D300D007E
:1000900041542B434D47463D310D0041542B434CB9
:1000A00049503D310D0041542B435041530D004107
:1000B000542B435245473F0D0041542B4343414C81
:1000C000523F0D00415444003B0D0041542B434D21
:1000D00047533D2200220D00484554203232304221
:1000E0001A004154480D0041542B47534D4255537B
:1000F000593D310D0041542B47534D425553593D05
:10010000300D0041540D0D0A4F4B0D0A004154456E
:10011000300D0D0A4F4B0D0A000D0A4F4B0D0A0012
:100120000D0A2B435041533A20300D0A0D0A4F4B14
:100130000D0A000D0A2B435245473A20302C310D51
:100140000A0D0A4F4B0D0A000D0A2B4343414C5236
:100150003A20310D0A0D0A4F4B0D0A000D0A524983
:100160004E470D0A0D0A2B434C49503A2022003EBF
:1001700020000D0A425553590D0A000011241FBEDC
:10018000CFE5D4E0DEBFCDBF10E0A0E6B0E0E4ED07
:10019000FCE002C005900D92A436B107D9F710E03B
:1001A000A4E6B0E001C01D92A13BB107E1F7B5D4D0
:1001B0008FC526CF1F920F920FB60F9211248F93E7
:1001C0009F93EF93FF93809171008034B9F4E09195
:1001D0006400F0E08CB1ED55FF4F808380916400A6
:1001E0008F5F80936400809164008D3039F5E091D9
:1001F0006400F0E0ED55FF4F10821BC08CB1E09120
:10020000A100F091A200E4918E17A9F48091A100C1
:100210009091A20001969093A2008093A100E0919A
:10022000A100F091A200E491EE2341F481E08093DB
:100230006000579803C082E080936000FF91EF91C7
:100240009F918F910F900FBE0F901F9018951F9246
:100250000F920FB60F9211242F938F939F9380913B
:100260006700909168002FEF8F3F9207B9F080915F
:10027000670090916800009741F4809160008130A0
:1002800021F082E080936000579880916700909100
:1002900068000197909368008093670080916500E3
:1002A00090916600009749F08091650090916600FA
:1002B000019790936600809365008091690090910A
:1002C0006A00009749F08091690090916A00019757
:1002D00090936A008093690080916D0090916E0008
:1002E000009749F080916D0090916E000197909376
:1002F0006E0080936D0080916F0090917000009768
:1003000049F080916F009091700001979093700078
:1003100080936F0080916B0090916C00009749F082
:1003200080916B0090916C00019790936C0080938A
:100330006B009F918F912F910F900FBE0F901F9088
:1003400018951F920F920FB60F9211248F939F93BF
:1003500080917100813051F480E28093710080E1DE
:1003600097E290936A008093690003C083E08093D2
:1003700071001BBE9F918F910F900FBE0F901F9029
:1003800018951F920F920FB60F9211248F939F937F
:1003900080917100813051F480E28093710080E19E
:1003A00097E290936A008093690003C083E0809392
:1003B00071001BBE9F918F910F900FBE0F901F90E9
:1003C00018951F920F920FB60F9211248F93809160
:1003D000720081608093720043988F910F900FBEDE
:1003E0000F901F901895CF93DF93EC0180916500DB
:1003F00090916600009709F045C080919F00909110
:10040000A00001979093A00080939F000097D1F5E2
:1004100086B380939E0085FD31C080917100882352
:1004200089F480E180937100F89480E090E060E1CD
:100430003ED480E197E290936A00809369007894BB
:10044000C39816C0109271001BBEF89480E090E033
:1004500060E02DD410926E0010926D00109270002A
:1004600010926F0010926C0010926B007894C39AF7
:1004700088EE93E09093660080936500D093A0008F
:10048000C0939F00DF91CF910895109260009093E8
:10049000A2008093A100F8947093680060936700B5
:1004A00078948CB1579A08951F93CF93DF93EC0102
:1004B000162F80916000823029F48CE591E06FEF77
:1004C0007FEFE3DF80916000813031F480E480933E
:1004D0007100579A1093610080916B0090916C00AD
:1004E000009751F4F894D0936C00C0936B0078940B
:1004F00088B390E1892788BBDF91CF911F91089540
:1005000083E790E061E070E04EE050E0A9D381E83D
:1005100090E06FE070E04EE050E0A2D38FE890E012
:100520006DE170E04EE050E09BD308955D9BFECFFF
:100530008CB90895EF92FF92CF93DF93E82EE701F5
:100540007E01F92EE70101C0F1DF89918823E1F7EF
:10055000DF91CF91FF90EF900895CF93DF93EC015F
:1005600004C02196FC018491E1DFCE01FE012491BB
:100570002223B9F7DF91CF910895DF93CF930F92A4
:10058000CDB7DEB7209164002D3031F510926400B4
:1005900011C030916400E0916400F0E0ED55FF4F30
:1005A0002081FC01E30FF11D2083209164002F5F67
:1005B00020936400209164002D3059F782EE90E082
:1005C0006983CBDF109264001092710082E0809307
:1005D00060006981609361000F90CF91DF91089571
:1005E0001F9382E08093600011E037C0A8958330AC
:1005F000B1F0843028F4813051F0823061F50BC0C5
:100600008530F9F0853078F0863029F51FC088EE06
:1006100093E062E019C083E790E063E007C084EFF5
:1006200091E064E011C081E890E065E0A6DF8FEF23
:100630009EE9A4E281509040A040E1F700C0000094
:100640000CC08AEF90E066E02FDF07C08FE890E0F3
:1006500067E093DF02C010936100809161008730F2
:1006600029F61F9108958091720080FF0EC080913D
:100670009D00813051F48AE080936200F89480916B
:1006800072008E7F8093720078948091620090E077
:1006900001978B30910508F058C08D5E9F4F8F9366
:1006A0009F93089594988FE79FEAA2E0815090402D
:1006B000A040E1F700C00000949AF89488E293E229
:1006C000909368008093670082E080936200789442
:1006D00008958EE690E041DF83E091E032C082E74A
:1006E00090E03BDF8DE091E02CC088E790E026C0F1
:1006F00087EE90E023C080E990E020C086EA90E099
:100700002CDF80E291E01DC08FEA90E026DF83E3DA
:1007100091E017C089EB90E020DF88E491E011C000
:100720008BEC90E01ADF83E790E004DF85ED90E04A
:1007300014DF8FE691E005C088ED90E00EDF89E1DF
:1007400091E068EB7BE0A1DE089581E08093620098
:100750000895A89520916000213099F58091670057
:10076000909168003FEF8F3F930759F585E08093A4
:1007700063008091620090E001978B309105F0F466
:10078000825E9F4F8F939F93089583E001C084E022
:100790008093620015C085E0FBCF86E0F9CF88E04A
:1007A000F7CF89E0F5CF81E080939D0005C08BE015
:1007B000EFCF88B1886188B987E0EACF20936200E3
:1007C00052DF80916000823021F580916700909126
:1007D00068002FEF8F3F9207E1F4809162008A500A
:1007E000823038F488B1886188B987E080936200EC
:1007F0000FC080916300815080936300882341F48F
:1008000010929D0081E08093620085E080936300F8
:100810002ADF0895C49801C09CDF80919D0081303B
:10082000D9F7A8958FEF9EE9A4E281509040A040AF
:10083000E1F700C00000A89585EF90E08EDEA89556
:100840008FEF9EE9A4E281509040A040E1F700C004
:100850000000A8958BE990E080DEA8958FEF9EE9D7
:10086000A4E281509040A040E1F700C00000A895AC
:1008700085E890E072DEA8958FEF9EE9A4E28150B2
:100880009040A040E1F700C00000A895A9DEA8951F
:100890008FEF9EE9A4E281509040A040E1F700C0B4
:1008A0000000A89587EE90E058DEA8958FEF9EE9AE
:1008B000A4E281509040A040E1F700C00000A8955C
:1008C000F89410926C0010926B00C49883E790E04B
:1008D00061E070E04EE050E0DBD181E890E06FE055
:1008E00070E04EE050E0D4D18FE890E06DE170E030
:1008F0004EE050E0CDD17894C49A80B380939E00AE
:1009000090E08072907001C0A8950097E9F3089577
:10091000CF93DF93EC0184EC90E01FDECE010ADE82
:1009200088EC90E01ADE89E191E060E27EE4ADDDE2
:10093000DF91CF910895F89484EF91E090936C004B
:1009400080936B00789488B398E0892788BB0895DA
:1009500080916D0090916E00009709F4C09A80918B
:100960006F0090917000009711F4C19AC29A089597
:100970001F93809160008823E1F311E0A895E8DFE0
:1009800080916B0090916C00009709F4D4DF80E1B6
:1009900097E229DD80917100882321F41F3009F04E
:1009A0007EC086C0812F90E002978E30910528F49A
:1009B000875D9F4F8F939F93089583E790E0A8DF13
:1009C00012E0DCCF80916000882309F43FC013E07F
:1009D0003DC080916000882389F282EE90E0BDDD09
:1009E00089E191E068EB7BE050DD14E0C7CF8091B6
:1009F0006000882309F062C0C1CF81E890E088DF01
:100A000016E0BCCF80916000882301F117E01EC082
:100A100080916000882309F4B1CF82EE90E09DDDE3
:100A200089E191E068EB7BE030DD18E0A7CF8091B1
:100A30006000882309F044C0A1CF8FE890E068DF10
:100A40001AE09CCF8091600081111BE080916000D2
:100A5000813009F093CF82E791E060E27EE415DD1A
:100A60008DCF80916000882309F488CF82EE90E0DA
:100A700074DD89E191E068EB7BE007DD1CE07ECF6F
:100A8000809160008823F1F479CFF89489E0809315
:100A9000710080E090E069E00AD1789417C082EE9E
:100AA00090E05BDD89E191E068EB7BE0EEDC0CC07F
:100AB00080916000882341F0C39A08C015E05ECFA2
:100AC00019E05CCF1DE05ACF1FE058CF1F91089569
:100AD0008C9A87B38F6187BB82B38C6282BB88B3E9
:100AE000846288BB88B3886188BB83E389B910BC02
:100AF0001BB888E18AB986E880BD89E08EBD8FE3A6
:100B00009FE19BBD8ABD80E189BF88BF85B78A60B0
:100B100085BF88B18B6488B90895EF92FF920F93D7
:100B20001F93CF93DF93D4DF80E090E0A9D0809330
:100B3000710078942FE088E190E00FB6F894A895C2
:100B400081BD0FBE21BD80917100882329F480B33F
:100B500080939E0085FF5EDEA895D2DC80917100B7
:100B6000882321F080EC8ABF8BBFC39893E0E92EE5
:100B7000C0E1D7E285E0F82E10EC01E088E893E1CF
:100B800032DCE7DDE5DE80917100803271F4809126
:100B9000690090916A00009741F4F894E092710026
:100BA00080E090E063E083D078948091710083309E
:100BB000A9F488B3887F88BBF894D0936E00C09363
:100BC0006D00D0937000C0936F00F092710080E0D0
:100BD00090E065E06CD078941ABF1BBF80917100E3
:100BE000853029F480919D00813009F4C1DE809127
:100BF0007100882359F080917100813039F0809123
:100C00006B0090916C00009709F495DE8091710063
:100C1000803189F48091690090916A00009759F4BD
:100C2000009371001ABF1BBFF89410926C001092D1
:100C30006B007894C39880917100803209F09ECF48
:100C40008091690090916A0027E28031920709F053
:100C500095CFF89480E090E060E229D078948ECF30
:100C6000DC01CB01FC01E199FECF06C0FFBBEEBB6E
:100C7000E09A31960DB20D9241505040B8F7089568
:100C8000E199FECF9FBB8EBBE09A99278DB3089563
:100C9000DC01A40FB51F4150504040F0CB01840F40
:100CA000951F2E9105D041505040D8F70895262F1A
:100CB000E199FECF9FBB8EBBE09A01970DB2021661
:100CC00031F02DBB0FB6F894E29AE19A0FBE089569
:040CD000F894FFCFC6
:040CD4000201010612
:00000001FF
