:10000000C9C0ABC1CAC1E1C0E0C0DFC02CC1DDC006
:10001000DCC0DBC0DAC0DAC0D8C0D7C0D6C0D5C01B
:10002000DCC1D3C0D2C04FC365C36AC36FC371C341
:1000300073C375C37AC37FC384C38FC396C398C386
:100040009AC3A2C3EDC3C3C3C4C3C7C3C8C3DBC37E
:10005000C8C3C9C3CAC3D2C3D3C3D7C3D8C3D9C300
:1000600096C49CC4A9C4AEC4B2C4B7C4C5C4CAC4EF
:10007000CEC4DCC4EAC4EEC4F7C4FFC441540D00CE
:10008000415445300D0041542B4950523D393630D2
:10009000300D0041542B434C43433D300D0041543F
:1000A0002B434D47463D310D0041542B434C4950A5
:1000B0003D310D0041542B435041530D0041542B11
:1000C000435245473F0D0041542B4343414C523F5F
:1000D0000D00415444003B0D0041542B434D475308
:1000E0003D2200220D0048455420323230421A0091
:1000F0004543546220323230421A004154480D00C8
:1001000041542B47534D425553593D310D004154F5
:100110002B47534D425553593D300D0041540D0D61
:100120000A4F4B0D0A00415445300D0D0A4F4B0D3F
:100130000A000D0A4F4B0D0A000D0A2B4350415384
:100140003A20300D0A0D0A4F4B0D0A000D0A2B43C1
:100150005245473A20302C310D0A0D0A4F4B0D0AFB
:10016000000D0A2B4343414C523A20310D0A0D0A2F
:100170004F4B0D0A000D0A52494E470D0A0D0A2B2E
:10018000434C49503A2022003E20000D0A4255536C
:10019000590D0A0011241FBECFE5D4E0DEBFCDBF4C
:1001A00010E0A0E6B0E0E0EBFCE002C005900D92AC
:1001B000A436B107D9F710E0A4E6B0E001C01D9263
:1001C000A23BB107E1F795D471C51ACF1F920F92E8
:1001D0000FB60F9211248F939F93EF93FF9380910B
:1001E00071008034B9F4E0916400F0E08CB1EC551A
:1001F000FF4F8083809164008F5F809364008091C3
:1002000064008D3039F5E0916400F0E0EC55FF4F6B
:1002100010821BC08CB1E091A200F091A300E49188
:100220008E17A9F48091A2009091A300019690935B
:10023000A3008093A200E091A200F091A300E491BA
:10024000EE2341F481E080936000579803C082E080
:1002500080936000FF91EF919F918F910F900FBE5F
:100260000F901F9018951F920F920FB60F921124A6
:100270002F938F939F9380916700909168002FEF49
:100280008F3F9207B9F080916700909168000097C6
:1002900041F480916000813021F082E08093600021
:1002A000579880916700909168000197909368003B
:1002B000809367008091650090916600009749F0F7
:1002C00080916500909166000197909366008093FD
:1002D00065008091690090916A00009749F08091D3
:1002E000690090916A00019790936A008093690079
:1002F00080916D0090916E00009749F080916D00A3
:1003000090916E00019790936E0080936D008091A4
:100310006F0090917000009749F080916F0090916C
:10032000700001979093700080936F0080916B0034
:1003300090916C00009749F080916B0090916C0057
:10034000019790936C0080936B009F918F912F91F8
:100350000F900FBE0F901F9018951F920F920FB61F
:100360000F9211248F939F9380917100813051F4EB
:1003700080E28093710080E197E290936A0080931D
:10038000690003C083E0809371001BBE9F918F9131
:100390000F900FBE0F901F9018951F920F920FB6DF
:1003A0000F9211248F939F9380917100813051F4AB
:1003B00080E28093710080E197E290936A008093DD
:1003C000690003C083E0809371001BBE9F918F91F1
:1003D0000F900FBE0F901F9018951F920F920FB69F
:1003E0000F9211248F939F9380917200816080936C
:1003F0007200439888B191E0892788B99F918F91C5
:100400000F900FBE0F901F901895CF93DF93EC01C4
:100410008091650090916600009709F045C0809139
:10042000A0009091A10001979093A1008093A0005B
:100430000097D1F586B38093730085FD31C080911C
:100440007100882389F480E180937100F89480E042
:1004500090E060E11AD480E197E290936A00809383
:1004600069007894C39816C0109271001BBEF8946E
:1004700080E090E060E009D410926E0010926D0070
:100480001092700010926F0010926C0010926B002E
:100490007894C39A88EE93E0909366008093650009
:1004A000D093A100C093A000DF91CF910895109246
:1004B00060009093A3008093A200F894709368006A
:1004C0006093670078948CB1579A08951F93CF93E7
:1004D000DF93EC01162F80916000823029F485E7CC
:1004E00091E06FEF7FEFE3DF80916000813031F4C6
:1004F00080E480937100579A10939E0080916B0066
:1005000090916C00009751F4F894D0936C00C093D4
:100510006B00789488B390E1892788BBDF91CF91F5
:100520001F91089584E790E061E070E04EE050E0B4
:1005300085D382E890E06FE070E04EE050E07ED33B
:1005400080E990E06DE170E04EE050E077D30895EF
:100550005D9BFECF8CB90895EF92FF92CF93DF930E
:10056000E82EE7017E01F92EE70101C0F1DF899154
:100570008823E1F7DF91CF91FF90EF900895CF931B
:10058000DF93EC0104C02196FC018491E1DFCE01F0
:10059000FE0124912223B9F7DF91CF910895DF93D3
:1005A000CF930F92CDB7DEB7209164002D3031F597
:1005B0001092640011C030916400E0916400F0E09A
:1005C000EC55FF4F2081FC01E30FF11D20832091AA
:1005D00064002F5F20936400209164002D3059F750
:1005E0008BEF90E06983CBDF109264001092710072
:1005F00082E080936000698160939E000F90CF91AC
:10060000DF9108951F9382E08093600011E036C06F
:10061000A8958330B1F0843028F4813051F08230D5
:1006200059F50BC08530A9F0853078F0863021F57A
:1006300015C088EE93E062E00FC084E790E063E0CD
:1006400010C084EF91E064E007C082E890E065E0CC
:1006500008C08AEF90E066E039DF10C080E990E0E2
:1006600067E09DDF8FEF94E3ACE081509040A040C5
:10067000E1F700C0000002C010939E0080919E0030
:10068000873031F61F9108958091720080FF0EC06F
:1006900080919F00813051F48AE080936100F8944A
:1006A000809172008E7F80937200789480916100B7
:1006B00090E001978F30910508F068C08D5E9F4FE4
:1006C0008F939F93089594988FE79FEAA2E08150BB
:1006D0009040A040E1F700C00000949AF89488E2AE
:1006E00093E2909368008093670082E080936100BA
:1006F000789408958CE790E042DF8CE191E040C06F
:1007000080E890E03CDF86E291E03AC086E890E045
:1007100034C08EE990E031C080E091E02EC084EBDF
:1007200090E02DDF89E391E02BC08DEB90E027DF97
:100730008CE491E025C087EC90E021DF81E691E038
:100740001FC089ED90E01BDF84E790E005DF83EEBA
:1007500090E015DF88E891E013C0409903C086EE71
:1007600090E00BC080EF90E008C083E990E005C006
:1007700089EA90E002C08EE091E001DF82E391E03F
:1007800068EB7BE094DE089586E001C081E0809311
:1007900061000895A89520916000213009F041C0C2
:1007A00080916700909168003FEF8F3F9307C9F5F4
:1007B00085E0809362008091610090E001978E3027
:1007C000910560F58E5D9F4F8F939F93089583E011
:1007D00001C084E08093610023C085E0FBCF86E008
:1007E000F9CF88E0F7CF89E0F5CF81E080939F00D3
:1007F00080919E00813039F48CE0ECCF8BE0EACF21
:1008000088B1886188B987E0E5CF8DE0E3CF8EE0DD
:10081000E1CF82E080939F008FE0DCCF20936100E6
:1008200033DF80916000823021F5809167009091E4
:1008300068002FEF8F3F9207E1F4809161008A50AA
:10084000823038F488B1886188B987E0809361008C
:100850000FC080916200815080936200882341F430
:1008600010929F0081E08093610085E08093620098
:100870000BDF0895C49881E080939E0001C08ADF59
:1008800080919F008230D9F7BDDEF89410926C0001
:1008900010926B00C49884E790E061E070E04EE055
:1008A00050E0E4D182E890E06FE070E04EE050E08C
:1008B000DDD180E990E06DE170E04EE050E0D6D10E
:1008C0007894C49A80B38093730090E080729070A3
:1008D00001C0A8950097E9F30895CF93DF93EC0149
:1008E00082ED90E04CDECE0137DE86ED90E047DE13
:1008F00082E391E060E27EE4DADDDF91CF9108955A
:10090000F89484EF91E090936C0080936B0078945E
:1009100088B398E0892788BB089580916D009091F5
:100920006E00009709F4C09A80916F00909170005A
:10093000009711F4C19AC29A08951F9380916000A4
:100940008823E1F311E0A895E8DF80916B00909196
:100950006C00009709F4D4DF80E197E256DD8091C6
:100960007100882321F41F3009F07EC086C0812FDA
:1009700090E002978E30910528F4805D9F4F8F9311
:100980009F93089584E790E0A8DF12E0DCCF809188
:100990006000882309F43FC013E03DC080916000EF
:1009A000882389F28BEF90E0EADD82E391E068EB47
:1009B0007BE07DDD14E0C7CF80916000882309F0E3
:1009C00062C0C1CF82E890E088DF16E0BCCF8091A2
:1009D0006000882301F117E01EC080916000882329
:1009E00009F4B1CF8BEF90E0CADD82E391E068EBD0
:1009F0007BE05DDD18E0A7CF80916000882309F0DF
:100A000044C0A1CF80E990E068DF1AE09CCF8091DC
:100A1000600081111BE080916000813009F093CF6C
:100A20008BE891E060E27EE442DD8DCF8091600052
:100A3000882309F488CF8BEF90E0A1DD82E391E079
:100A400068EB7BE034DD1CE07ECF80916000882382
:100A5000F1F479CFF89489E08093710080E090E020
:100A600069E013D1789417C08BEF90E088DD82E3C2
:100A700091E068EB7BE01BDD0CC080916000882377
:100A800041F0C39A08C015E05ECF19E05CCF1DE0CD
:100A90005ACF1FE058CF1F9108958C9A87B38F616A
:100AA00087BB82B38C6282BB88B3846288BB88B305
:100AB000886188BB83E389B910BC1BB888E18AB917
:100AC00086E880BD89E08EBD8FE39FE19BBD8ABD36
:100AD00080E189BF88BF85B78A6085BF8091730038
:100AE00087FD03C088B18B6402C088B18A6488B96D
:100AF0000895EF92FF920F931F93CF93DF93CDDF73
:100B000080E090E0ABD08093710078942FE088E192
:100B100090E00FB6F894A89581BD0FBE21BD8091DD
:100B20007100882329F480B38093730085FFA2DECF
:100B300010929E00A895F6DC80917100882321F028
:100B400080EC8ABF8BBFC39893E0E92EC0E1D7E267
:100B500085E0F82E10EC01E088E893E156DC1ADE1F
:100B6000DCDE80917100803271F480916900909197
:100B70006A00009741F4F894E092710080E090E000
:100B800063E083D07894809171008330A9F488B3B6
:100B9000887F88BBF894D0936E00C0936D00D0938B
:100BA0007000C0936F00F092710080E090E065E00B
:100BB0006CD078941ABF1BBF80917100853029F4E6
:100BC00080919F00813009F4B8DE80917100882304
:100BD00059F080917100813039F080916B009091D3
:100BE0006C00009709F48CDE80917100803189F4EB
:100BF0008091690090916A00009759F40093710008
:100C00001ABF1BBFF89410926C0010926B0078947E
:100C1000C39880917100803209F09ECF8091690065
:100C200090916A0027E28031920709F095CFF894FD
:100C300080E090E060E229D078948ECFDC01CB0197
:100C4000FC01E199FECF06C0FFBBEEBBE09A3196F6
:100C50000DB20D9241505040B8F70895E199FECF82
:100C60009FBB8EBBE09A99278DB30895DC01A40F3A
:100C7000B51F4150504040F0CB01840F951F2E917D
:100C800005D041505040D8F70895262FE199FECF66
:100C90009FBB8EBBE09A01970DB2021631F02DBBBF
:100CA0000FB6F894E29AE19A0FBE0895F894FFCF38
:040CB0000201060037
:00000001FF
